{
  "contractName": "TicketTransfer",
  "abi": [
    {
      "constant": true,
      "inputs": [
        {
          "name": "",
          "type": "address"
        }
      ],
      "name": "ownerToQuantity",
      "outputs": [
        {
          "name": "",
          "type": "uint256"
        }
      ],
      "payable": false,
      "stateMutability": "view",
      "type": "function"
    },
    {
      "constant": false,
      "inputs": [],
      "name": "circuitBreaker",
      "outputs": [
        {
          "name": "",
          "type": "bool"
        }
      ],
      "payable": false,
      "stateMutability": "nonpayable",
      "type": "function"
    },
    {
      "constant": false,
      "inputs": [
        {
          "name": "_firstName",
          "type": "string"
        },
        {
          "name": "_lastName",
          "type": "string"
        }
      ],
      "name": "createAccount",
      "outputs": [
        {
          "name": "",
          "type": "uint256"
        }
      ],
      "payable": false,
      "stateMutability": "nonpayable",
      "type": "function"
    },
    {
      "constant": false,
      "inputs": [
        {
          "name": "_eventName",
          "type": "string"
        },
        {
          "name": "_description",
          "type": "string"
        },
        {
          "name": "_price",
          "type": "uint256"
        }
      ],
      "name": "createTicket",
      "outputs": [],
      "payable": false,
      "stateMutability": "nonpayable",
      "type": "function"
    },
    {
      "constant": true,
      "inputs": [
        {
          "name": "",
          "type": "uint256"
        }
      ],
      "name": "approvedBuyers",
      "outputs": [
        {
          "name": "",
          "type": "address"
        }
      ],
      "payable": false,
      "stateMutability": "view",
      "type": "function"
    },
    {
      "constant": true,
      "inputs": [
        {
          "name": "",
          "type": "uint256"
        }
      ],
      "name": "users",
      "outputs": [
        {
          "name": "userAd",
          "type": "address"
        },
        {
          "name": "firstName",
          "type": "string"
        },
        {
          "name": "lastName",
          "type": "string"
        }
      ],
      "payable": false,
      "stateMutability": "view",
      "type": "function"
    },
    {
      "constant": true,
      "inputs": [
        {
          "name": "",
          "type": "uint256"
        }
      ],
      "name": "tickets",
      "outputs": [
        {
          "name": "eventName",
          "type": "string"
        },
        {
          "name": "description",
          "type": "string"
        },
        {
          "name": "price",
          "type": "uint256"
        },
        {
          "name": "marketStatus",
          "type": "uint256"
        }
      ],
      "payable": false,
      "stateMutability": "view",
      "type": "function"
    },
    {
      "constant": true,
      "inputs": [
        {
          "name": "",
          "type": "uint256"
        }
      ],
      "name": "ticketsToOwner",
      "outputs": [
        {
          "name": "",
          "type": "address"
        }
      ],
      "payable": false,
      "stateMutability": "view",
      "type": "function"
    },
    {
      "constant": true,
      "inputs": [],
      "name": "contractPaused",
      "outputs": [
        {
          "name": "",
          "type": "bool"
        }
      ],
      "payable": false,
      "stateMutability": "view",
      "type": "function"
    },
    {
      "constant": true,
      "inputs": [
        {
          "name": "",
          "type": "address"
        }
      ],
      "name": "adToUserId",
      "outputs": [
        {
          "name": "",
          "type": "uint256"
        }
      ],
      "payable": false,
      "stateMutability": "view",
      "type": "function"
    },
    {
      "inputs": [],
      "payable": false,
      "stateMutability": "nonpayable",
      "type": "constructor"
    },
    {
      "anonymous": false,
      "inputs": [
        {
          "indexed": true,
          "name": "_from",
          "type": "address"
        },
        {
          "indexed": true,
          "name": "_to",
          "type": "address"
        },
        {
          "indexed": true,
          "name": "_ticketId",
          "type": "uint256"
        }
      ],
      "name": "Transfer",
      "type": "event"
    },
    {
      "anonymous": false,
      "inputs": [
        {
          "indexed": true,
          "name": "_owner",
          "type": "address"
        },
        {
          "indexed": true,
          "name": "_approved",
          "type": "address"
        },
        {
          "indexed": true,
          "name": "_ticketId",
          "type": "uint256"
        }
      ],
      "name": "Approval",
      "type": "event"
    },
    {
      "anonymous": false,
      "inputs": [
        {
          "indexed": true,
          "name": "ticketId",
          "type": "uint256"
        },
        {
          "indexed": false,
          "name": "eventName",
          "type": "string"
        },
        {
          "indexed": false,
          "name": "description",
          "type": "string"
        },
        {
          "indexed": false,
          "name": "price",
          "type": "uint256"
        },
        {
          "indexed": false,
          "name": "status",
          "type": "uint256"
        }
      ],
      "name": "NewTicket",
      "type": "event"
    },
    {
      "constant": true,
      "inputs": [],
      "name": "getContractDeployer",
      "outputs": [
        {
          "name": "",
          "type": "address"
        }
      ],
      "payable": false,
      "stateMutability": "view",
      "type": "function"
    },
    {
      "constant": true,
      "inputs": [],
      "name": "getTicketCount",
      "outputs": [
        {
          "name": "",
          "type": "uint256"
        }
      ],
      "payable": false,
      "stateMutability": "view",
      "type": "function"
    },
    {
      "constant": true,
      "inputs": [
        {
          "name": "_owner",
          "type": "address"
        }
      ],
      "name": "balanceOf",
      "outputs": [
        {
          "name": "",
          "type": "uint256"
        }
      ],
      "payable": false,
      "stateMutability": "view",
      "type": "function"
    },
    {
      "constant": true,
      "inputs": [
        {
          "name": "_ticketId",
          "type": "uint256"
        }
      ],
      "name": "ownerOf",
      "outputs": [
        {
          "name": "",
          "type": "address"
        }
      ],
      "payable": false,
      "stateMutability": "view",
      "type": "function"
    },
    {
      "constant": true,
      "inputs": [
        {
          "name": "_ticketId",
          "type": "uint256"
        }
      ],
      "name": "getPrice",
      "outputs": [
        {
          "name": "",
          "type": "uint256"
        }
      ],
      "payable": false,
      "stateMutability": "view",
      "type": "function"
    },
    {
      "constant": true,
      "inputs": [
        {
          "name": "_ticketId",
          "type": "uint256"
        }
      ],
      "name": "getStatus",
      "outputs": [
        {
          "name": "",
          "type": "uint256"
        }
      ],
      "payable": false,
      "stateMutability": "view",
      "type": "function"
    },
    {
      "constant": false,
      "inputs": [
        {
          "name": "_from",
          "type": "address"
        },
        {
          "name": "_to",
          "type": "address"
        },
        {
          "name": "_ticketId",
          "type": "uint256"
        }
      ],
      "name": "transferFrom",
      "outputs": [],
      "payable": true,
      "stateMutability": "payable",
      "type": "function"
    },
    {
      "constant": false,
      "inputs": [
        {
          "name": "_ticketId",
          "type": "uint256"
        }
      ],
      "name": "transferEthToCD",
      "outputs": [],
      "payable": true,
      "stateMutability": "payable",
      "type": "function"
    },
    {
      "constant": false,
      "inputs": [
        {
          "name": "_ticketId",
          "type": "uint256"
        },
        {
          "name": "_newPrice",
          "type": "uint256"
        }
      ],
      "name": "priceRevise",
      "outputs": [
        {
          "name": "",
          "type": "uint256"
        }
      ],
      "payable": false,
      "stateMutability": "nonpayable",
      "type": "function"
    },
    {
      "constant": false,
      "inputs": [
        {
          "name": "_approved",
          "type": "address"
        },
        {
          "name": "_ticketId",
          "type": "uint256"
        }
      ],
      "name": "approve",
      "outputs": [],
      "payable": true,
      "stateMutability": "payable",
      "type": "function"
    },
    {
      "constant": true,
      "inputs": [
        {
          "name": "_ticketId",
          "type": "uint256"
        }
      ],
      "name": "getApprovedBuyer",
      "outputs": [
        {
          "name": "",
          "type": "address"
        }
      ],
      "payable": false,
      "stateMutability": "view",
      "type": "function"
    },
    {
      "constant": false,
      "inputs": [
        {
          "name": "_to",
          "type": "address"
        },
        {
          "name": "_ticketId",
          "type": "uint256"
        }
      ],
      "name": "transferFromSecond",
      "outputs": [],
      "payable": false,
      "stateMutability": "nonpayable",
      "type": "function"
    },
    {
      "constant": false,
      "inputs": [
        {
          "name": "_ticketId",
          "type": "uint256"
        }
      ],
      "name": "transferEthSecond",
      "outputs": [],
      "payable": true,
      "stateMutability": "payable",
      "type": "function"
    },
    {
      "constant": false,
      "inputs": [],
      "name": "kill",
      "outputs": [],
      "payable": false,
      "stateMutability": "nonpayable",
      "type": "function"
    }
  ],
  "bytecode": "0x608060405234801561001057600080fd5b50336000806101000a81548173ffffffffffffffffffffffffffffffffffffffff021916908373ffffffffffffffffffffffffffffffffffffffff16021790555060008060146101000a81548160ff021916908315150217905550601e600660006101000a81548167ffffffffffffffff021916908367ffffffffffffffff160217905550612f8b806100a46000396000f3fe60806040526004361061014b5760003560e01c80635c622a0e116100b6578063cda30d081161006f578063cda30d0814610a10578063d0a8160914610a75578063d5473bc014610af0578063e13ead0514610b49578063e757223014610ba4578063f76da1eb14610bf35761014b565b80635c622a0e146108095780636352211e146108585780636f6185a7146108d357806370a082311461094e5780638a67456a146109b3578063cd76c2a8146109e25761014b565b806323b872dd1161010857806323b872dd146104315780632cca54d41461049f578063365002131461051a578063365b98b21461057157806341c0e1b5146106c457806350b44712146106db5761014b565b8063023d998114610150578063095ea7b3146101b557806316efd9411461020357806319289287146102325780631af4d7021461032157806321c63a4714610406575b600080fd5b34801561015c57600080fd5b5061019f6004803603602081101561017357600080fd5b81019080803573ffffffffffffffffffffffffffffffffffffffff169060200190929190505050610c21565b6040518082815260200191505060405180910390f35b610201600480360360408110156101cb57600080fd5b81019080803573ffffffffffffffffffffffffffffffffffffffff16906020019092919080359060200190929190505050610c39565b005b34801561020f57600080fd5b5061021861100b565b604051808215151515815260200191505060405180910390f35b34801561023e57600080fd5b5061030b6004803603604081101561025557600080fd5b810190808035906020019064010000000081111561027257600080fd5b82018360208201111561028457600080fd5b803590602001918460018302840111640100000000831117156102a657600080fd5b9091929391929390803590602001906401000000008111156102c757600080fd5b8201836020820111156102d957600080fd5b803590602001918460018302840111640100000000831117156102fb57600080fd5b909192939192939050505061111e565b6040518082815260200191505060405180910390f35b34801561032d57600080fd5b506104046004803603606081101561034457600080fd5b810190808035906020019064010000000081111561036157600080fd5b82018360208201111561037357600080fd5b8035906020019184600183028401116401000000008311171561039557600080fd5b9091929391929390803590602001906401000000008111156103b657600080fd5b8201836020820111156103c857600080fd5b803590602001918460018302840111640100000000831117156103ea57600080fd5b909192939192939080359060200190929190505050611365565b005b34801561041257600080fd5b5061041b61175a565b6040518082815260200191505060405180910390f35b61049d6004803603606081101561044757600080fd5b81019080803573ffffffffffffffffffffffffffffffffffffffff169060200190929190803573ffffffffffffffffffffffffffffffffffffffff16906020019092919080359060200190929190505050611767565b005b3480156104ab57600080fd5b506104d8600480360360208110156104c257600080fd5b8101908080359060200190929190505050611be3565b604051808273ffffffffffffffffffffffffffffffffffffffff1673ffffffffffffffffffffffffffffffffffffffff16815260200191505060405180910390f35b34801561052657600080fd5b5061052f611c16565b604051808273ffffffffffffffffffffffffffffffffffffffff1673ffffffffffffffffffffffffffffffffffffffff16815260200191505060405180910390f35b34801561057d57600080fd5b506105aa6004803603602081101561059457600080fd5b8101908080359060200190929190505050611c3f565b604051808473ffffffffffffffffffffffffffffffffffffffff1673ffffffffffffffffffffffffffffffffffffffff1681526020018060200180602001838103835285818151815260200191508051906020019080838360005b83811015610620578082015181840152602081019050610605565b50505050905090810190601f16801561064d5780820380516001836020036101000a031916815260200191505b50838103825284818151815260200191508051906020019080838360005b8381101561068657808201518184015260208101905061066b565b50505050905090810190601f1680156106b35780820380516001836020036101000a031916815260200191505b509550505050505060405180910390f35b3480156106d057600080fd5b506106d9611dc6565b005b3480156106e757600080fd5b50610714600480360360208110156106fe57600080fd5b8101908080359060200190929190505050611ea5565b604051808060200180602001858152602001848152602001838103835287818151815260200191508051906020019080838360005b83811015610764578082015181840152602081019050610749565b50505050905090810190601f1680156107915780820380516001836020036101000a031916815260200191505b50838103825286818151815260200191508051906020019080838360005b838110156107ca5780820151818401526020810190506107af565b50505050905090810190601f1680156107f75780820380516001836020036101000a031916815260200191505b50965050505050505060405180910390f35b34801561081557600080fd5b506108426004803603602081101561082c57600080fd5b8101908080359060200190929190505050612012565b6040518082815260200191505060405180910390f35b34801561086457600080fd5b506108916004803603602081101561087b57600080fd5b810190808035906020019092919050505061203a565b604051808273ffffffffffffffffffffffffffffffffffffffff1673ffffffffffffffffffffffffffffffffffffffff16815260200191505060405180910390f35b3480156108df57600080fd5b5061090c600480360360208110156108f657600080fd5b8101908080359060200190929190505050612077565b604051808273ffffffffffffffffffffffffffffffffffffffff1673ffffffffffffffffffffffffffffffffffffffff16815260200191505060405180910390f35b34801561095a57600080fd5b5061099d6004803603602081101561097157600080fd5b81019080803573ffffffffffffffffffffffffffffffffffffffff1690602001909291905050506120aa565b6040518082815260200191505060405180910390f35b3480156109bf57600080fd5b506109c86120f3565b604051808215151515815260200191505060405180910390f35b610a0e600480360360208110156109f857600080fd5b8101908080359060200190929190505050612106565b005b348015610a1c57600080fd5b50610a5f60048036036020811015610a3357600080fd5b81019080803573ffffffffffffffffffffffffffffffffffffffff16906020019092919050505061247c565b6040518082815260200191505060405180910390f35b348015610a8157600080fd5b50610aae60048036036020811015610a9857600080fd5b8101908080359060200190929190505050612494565b604051808273ffffffffffffffffffffffffffffffffffffffff1673ffffffffffffffffffffffffffffffffffffffff16815260200191505060405180910390f35b348015610afc57600080fd5b50610b3360048036036040811015610b1357600080fd5b8101908080359060200190929190803590602001909291905050506124d1565b6040518082815260200191505060405180910390f35b348015610b5557600080fd5b50610ba260048036036040811015610b6c57600080fd5b81019080803573ffffffffffffffffffffffffffffffffffffffff1690602001909291908035906020019092919050505061265a565b005b348015610bb057600080fd5b50610bdd60048036036020811015610bc757600080fd5b8101908080359060200190929190505050612c5e565b6040518082815260200191505060405180910390f35b610c1f60048036036020811015610c0957600080fd5b8101908080359060200190929190505050612c86565b005b60056020528060005260406000206000915090505481565b60001515600060149054906101000a900460ff16151514610cc2576040517f08c379a00000000000000000000000000000000000000000000000000000000081526004018080602001828103825260188152602001807f436f6e747261637420616c7265616479207061757365642e000000000000000081525060200191505060405180910390fd5b806004600082815260200190815260200160002060009054906101000a900473ffffffffffffffffffffffffffffffffffffffff1673ffffffffffffffffffffffffffffffffffffffff163373ffffffffffffffffffffffffffffffffffffffff161415610d98576040517f08c379a00000000000000000000000000000000000000000000000000000000081526004018080602001828103825260168152602001807f596f7520617265206e6f74207468652062757965722e0000000000000000000081525060200191505060405180910390fd5b6000600360003373ffffffffffffffffffffffffffffffffffffffff1673ffffffffffffffffffffffffffffffffffffffff1681526020019081526020016000205411610e4d576040517f08c379a000000000000000000000000000000000000000000000000000000000815260040180806020018281038252601f8152602001807f506c656173652063726561746520616e206163636f756e742066697273742e0081525060200191505060405180910390fd5b670de0b6b3a764000060028381548110610e6357fe5b906000526020600020906004020160020154023414610eea576040517f08c379a00000000000000000000000000000000000000000000000000000000081526004018080602001828103825260118152602001807f4e6f7420656e6f756768206d6f6e65792e00000000000000000000000000000081525060200191505060405180910390fd5b826009600084815260200190815260200160002060006101000a81548173ffffffffffffffffffffffffffffffffffffffff021916908373ffffffffffffffffffffffffffffffffffffffff160217905550346007600084815260200190815260200160002081905550600160028381548110610f6357fe5b906000526020600020906004020160030181905550818373ffffffffffffffffffffffffffffffffffffffff166004600085815260200190815260200160002060009054906101000a900473ffffffffffffffffffffffffffffffffffffffff1673ffffffffffffffffffffffffffffffffffffffff167f8c5be1e5ebec7d5bd14f71427d1e84f3dd0314c0f7b2291e5b200ac8c7c3b92560405160405180910390a4505050565b60008060009054906101000a900473ffffffffffffffffffffffffffffffffffffffff1673ffffffffffffffffffffffffffffffffffffffff163373ffffffffffffffffffffffffffffffffffffffff16146110b2576040517f08c379a0000000000000000000000000000000000000000000000000000000008152600401808060200182810382526022815260200180612f3e6022913960400191505060405180910390fd5b60001515600060149054906101000a900460ff16151514156110ee576001600060146101000a81548160ff021916908315150217905550611109565b60008060146101000a81548160ff0219169083151502179055505b600060149054906101000a900460ff16905090565b6000801515600060149054906101000a900460ff161515146111a8576040517f08c379a00000000000000000000000000000000000000000000000000000000081526004018080602001828103825260188152602001807f436f6e747261637420616c7265616479207061757365642e000000000000000081525060200191505060405180910390fd5b6000600160405180606001604052803373ffffffffffffffffffffffffffffffffffffffff16815260200188888080601f016020809104026020016040519081016040528093929190818152602001838380828437600081840152601f19601f82011690508083019250505050505050815260200186868080601f016020809104026020016040519081016040528093929190818152602001838380828437600081840152601f19601f820116905080830192505050505050508152509080600181540180825580915050906001820390600052602060002090600302016000909192909190915060008201518160000160006101000a81548173ffffffffffffffffffffffffffffffffffffffff021916908373ffffffffffffffffffffffffffffffffffffffff16021790555060208201518160010190805190602001906112f3929190612e98565b506040820151816002019080519060200190611310929190612e98565b505050905080600360003373ffffffffffffffffffffffffffffffffffffffff1673ffffffffffffffffffffffffffffffffffffffff1681526020019081526020016000208190555080915050949350505050565b60001515600060149054906101000a900460ff161515146113ee576040517f08c379a00000000000000000000000000000000000000000000000000000000081526004018080602001828103825260188152602001807f436f6e747261637420616c7265616479207061757365642e000000000000000081525060200191505060405180910390fd5b6000809054906101000a900473ffffffffffffffffffffffffffffffffffffffff1673ffffffffffffffffffffffffffffffffffffffff163373ffffffffffffffffffffffffffffffffffffffff1614611493576040517f08c379a0000000000000000000000000000000000000000000000000000000008152600401808060200182810382526022815260200180612f3e6022913960400191505060405180910390fd5b600060016002604051806080016040528089898080601f016020809104026020016040519081016040528093929190818152602001838380828437600081840152601f19601f82011690508083019250505050505050815260200187878080601f016020809104026020016040519081016040528093929190818152602001838380828437600081840152601f19601f820116905080830192505050505050508152602001858152602001600081525090806001815401808255809150509060018203906000526020600020906004020160009091929091909150600082015181600001908051906020019061158a929190612e98565b5060208201518160010190805190602001906115a7929190612e98565b5060408201518160020155606082015181600301555050039050336004600083815260200190815260200160002060006101000a81548173ffffffffffffffffffffffffffffffffffffffff021916908373ffffffffffffffffffffffffffffffffffffffff1602179055506116666001600560003373ffffffffffffffffffffffffffffffffffffffff1673ffffffffffffffffffffffffffffffffffffffff16815260200190815260200160002054612e6590919063ffffffff16565b600560003373ffffffffffffffffffffffffffffffffffffffff1673ffffffffffffffffffffffffffffffffffffffff16815260200190815260200160002081905550807f80a133860f6105f46e01c34cdf7181b2370de45ea9b1890b3c8a6b14ca2acb61878787878760006040518080602001806020018581526020018481526020018381038352898982818152602001925080828437600081840152601f19601f8201169050808301925050508381038252878782818152602001925080828437600081840152601f19601f8201169050808301925050509850505050505050505060405180910390a2505050505050565b6000600280549050905090565b60001515600060149054906101000a900460ff161515146117f0576040517f08c379a00000000000000000000000000000000000000000000000000000000081526004018080602001828103825260188152602001807f436f6e747261637420616c7265616479207061757365642e000000000000000081525060200191505060405180910390fd5b6000809054906101000a900473ffffffffffffffffffffffffffffffffffffffff1673ffffffffffffffffffffffffffffffffffffffff163373ffffffffffffffffffffffffffffffffffffffff1614156118b3576040517f08c379a000000000000000000000000000000000000000000000000000000000815260040180806020018281038252601e8152602001807f596f75206172652074686520636f6e7472616374206465706c6f7965722e000081525060200191505060405180910390fd5b6000600360008473ffffffffffffffffffffffffffffffffffffffff1673ffffffffffffffffffffffffffffffffffffffff1681526020019081526020016000205411611968576040517f08c379a000000000000000000000000000000000000000000000000000000000815260040180806020018281038252601f8152602001807f506c656173652063726561746520616e206163636f756e742066697273742e0081525060200191505060405180910390fd5b670de0b6b3a76400006002828154811061197e57fe5b906000526020600020906004020160020154023414611a05576040517f08c379a00000000000000000000000000000000000000000000000000000000081526004018080602001828103825260118152602001807f4e6f7420656e6f756768206d6f6e65792e00000000000000000000000000000081525060200191505060405180910390fd5b816004600083815260200190815260200160002060006101000a81548173ffffffffffffffffffffffffffffffffffffffff021916908373ffffffffffffffffffffffffffffffffffffffff160217905550611aaa6001600560008673ffffffffffffffffffffffffffffffffffffffff1673ffffffffffffffffffffffffffffffffffffffff16815260200190815260200160002054612e8190919063ffffffff16565b600560008573ffffffffffffffffffffffffffffffffffffffff1673ffffffffffffffffffffffffffffffffffffffff16815260200190815260200160002081905550611b406001600560008573ffffffffffffffffffffffffffffffffffffffff1673ffffffffffffffffffffffffffffffffffffffff16815260200190815260200160002054612e6590919063ffffffff16565b600560008473ffffffffffffffffffffffffffffffffffffffff1673ffffffffffffffffffffffffffffffffffffffff16815260200190815260200160002081905550808273ffffffffffffffffffffffffffffffffffffffff168473ffffffffffffffffffffffffffffffffffffffff167fddf252ad1be2c89b69c2b068fc378daa952ba7f163c4a11628f55a4df523b3ef60405160405180910390a4505050565b60096020528060005260406000206000915054906101000a900473ffffffffffffffffffffffffffffffffffffffff1681565b60008060009054906101000a900473ffffffffffffffffffffffffffffffffffffffff16905090565b60018181548110611c4c57fe5b90600052602060002090600302016000915090508060000160009054906101000a900473ffffffffffffffffffffffffffffffffffffffff1690806001018054600181600116156101000203166002900480601f016020809104026020016040519081016040528092919081815260200182805460018160011615610100020316600290048015611d1e5780601f10611cf357610100808354040283529160200191611d1e565b820191906000526020600020905b815481529060010190602001808311611d0157829003601f168201915b505050505090806002018054600181600116156101000203166002900480601f016020809104026020016040519081016040528092919081815260200182805460018160011615610100020316600290048015611dbc5780601f10611d9157610100808354040283529160200191611dbc565b820191906000526020600020905b815481529060010190602001808311611d9f57829003601f168201915b5050505050905083565b6000809054906101000a900473ffffffffffffffffffffffffffffffffffffffff1673ffffffffffffffffffffffffffffffffffffffff163373ffffffffffffffffffffffffffffffffffffffff1614611e6b576040517f08c379a0000000000000000000000000000000000000000000000000000000008152600401808060200182810382526022815260200180612f3e6022913960400191505060405180910390fd5b6000809054906101000a900473ffffffffffffffffffffffffffffffffffffffff1673ffffffffffffffffffffffffffffffffffffffff16ff5b60028181548110611eb257fe5b9060005260206000209060040201600091509050806000018054600181600116156101000203166002900480601f016020809104026020016040519081016040528092919081815260200182805460018160011615610100020316600290048015611f5e5780601f10611f3357610100808354040283529160200191611f5e565b820191906000526020600020905b815481529060010190602001808311611f4157829003601f168201915b505050505090806001018054600181600116156101000203166002900480601f016020809104026020016040519081016040528092919081815260200182805460018160011615610100020316600290048015611ffc5780601f10611fd157610100808354040283529160200191611ffc565b820191906000526020600020905b815481529060010190602001808311611fdf57829003601f168201915b5050505050908060020154908060030154905084565b60006002828154811061202157fe5b9060005260206000209060040201600301549050919050565b60006004600083815260200190815260200160002060009054906101000a900473ffffffffffffffffffffffffffffffffffffffff169050919050565b60046020528060005260406000206000915054906101000a900473ffffffffffffffffffffffffffffffffffffffff1681565b6000600560008373ffffffffffffffffffffffffffffffffffffffff1673ffffffffffffffffffffffffffffffffffffffff168152602001908152602001600020549050919050565b600060149054906101000a900460ff1681565b60001515600060149054906101000a900460ff1615151461218f576040517f08c379a00000000000000000000000000000000000000000000000000000000081526004018080602001828103825260188152602001807f436f6e747261637420616c7265616479207061757365642e000000000000000081525060200191505060405180910390fd5b600280828154811061219d57fe5b90600052602060002090600402016003015414612222576040517f08c379a000000000000000000000000000000000000000000000000000000000815260040180806020018281038252601b8152602001807f5469636b6574206e6f7420796574207472616e736665727265642e000000000081525060200191505060405180910390fd5b3373ffffffffffffffffffffffffffffffffffffffff166008600083815260200190815260200160002060009054906101000a900473ffffffffffffffffffffffffffffffffffffffff1673ffffffffffffffffffffffffffffffffffffffff16146122f6576040517f08c379a000000000000000000000000000000000000000000000000000000000815260040180806020018281038252601e8152602001807f596f752063616e6e6f742072756e2074686973206f7065726174696f6e2e000081525060200191505060405180910390fd5b60036002828154811061230557fe5b90600052602060002090600402016003018190555060003390506000600660009054906101000a900467ffffffffffffffff1667ffffffffffffffff1660076000858152602001908152602001600020548161235d57fe5b04905060008160076000868152602001908152602001600020540390506000809054906101000a900473ffffffffffffffffffffffffffffffffffffffff1673ffffffffffffffffffffffffffffffffffffffff166108fc839081150290604051600060405180830381858888f193505050501580156123e1573d6000803e3d6000fd5b508273ffffffffffffffffffffffffffffffffffffffff166108fc829081150290604051600060405180830381858888f19350505050158015612428573d6000803e3d6000fd5b5060076000858152602001908152602001600020600090556008600085815260200190815260200160002060006101000a81549073ffffffffffffffffffffffffffffffffffffffff021916905550505050565b60036020528060005260406000206000915090505481565b60006009600083815260200190815260200160002060009054906101000a900473ffffffffffffffffffffffffffffffffffffffff169050919050565b6000801515600060149054906101000a900460ff1615151461255b576040517f08c379a00000000000000000000000000000000000000000000000000000000081526004018080602001828103825260188152602001807f436f6e747261637420616c7265616479207061757365642e000000000000000081525060200191505060405180910390fd5b823373ffffffffffffffffffffffffffffffffffffffff166004600083815260200190815260200160002060009054906101000a900473ffffffffffffffffffffffffffffffffffffffff1673ffffffffffffffffffffffffffffffffffffffff1614612630576040517f08c379a00000000000000000000000000000000000000000000000000000000081526004018080602001828103825260198152602001807f596f7520646f6e2774206f776e20746865207469636b65742e0000000000000081525060200191505060405180910390fd5b826002858154811061263e57fe5b9060005260206000209060040201600201819055505092915050565b60001515600060149054906101000a900460ff161515146126e3576040517f08c379a00000000000000000000000000000000000000000000000000000000081526004018080602001828103825260188152602001807f436f6e747261637420616c7265616479207061757365642e000000000000000081525060200191505060405180910390fd5b803373ffffffffffffffffffffffffffffffffffffffff166004600083815260200190815260200160002060009054906101000a900473ffffffffffffffffffffffffffffffffffffffff1673ffffffffffffffffffffffffffffffffffffffff16146127b8576040517f08c379a00000000000000000000000000000000000000000000000000000000081526004018080602001828103825260198152602001807f596f7520646f6e2774206f776e20746865207469636b65742e0000000000000081525060200191505060405180910390fd5b6000600360003373ffffffffffffffffffffffffffffffffffffffff1673ffffffffffffffffffffffffffffffffffffffff168152602001908152602001600020541161286d576040517f08c379a000000000000000000000000000000000000000000000000000000000815260040180806020018281038252601f8152602001807f506c656173652063726561746520616e206163636f756e742066697273742e0081525060200191505060405180910390fd5b60016002838154811061287c57fe5b90600052602060002090600402016003015414612901576040517f08c379a000000000000000000000000000000000000000000000000000000000815260040180806020018281038252601e8152602001807f4e6f742079657420617070726f76656420627920616e792062757965722e000081525060200191505060405180910390fd5b8273ffffffffffffffffffffffffffffffffffffffff166009600084815260200190815260200160002060009054906101000a900473ffffffffffffffffffffffffffffffffffffffff1673ffffffffffffffffffffffffffffffffffffffff16146129d5576040517f08c379a000000000000000000000000000000000000000000000000000000000815260040180806020018281038252601e8152602001807f54686973206973206e6f7420616e20617070726f7665642062757965722e000081525060200191505060405180910390fd5b826004600084815260200190815260200160002060006101000a81548173ffffffffffffffffffffffffffffffffffffffff021916908373ffffffffffffffffffffffffffffffffffffffff160217905550336008600084815260200190815260200160002060006101000a81548173ffffffffffffffffffffffffffffffffffffffff021916908373ffffffffffffffffffffffffffffffffffffffff160217905550612acc6001600560003373ffffffffffffffffffffffffffffffffffffffff1673ffffffffffffffffffffffffffffffffffffffff16815260200190815260200160002054612e8190919063ffffffff16565b600560003373ffffffffffffffffffffffffffffffffffffffff1673ffffffffffffffffffffffffffffffffffffffff16815260200190815260200160002081905550612b626001600560008673ffffffffffffffffffffffffffffffffffffffff1673ffffffffffffffffffffffffffffffffffffffff16815260200190815260200160002054612e6590919063ffffffff16565b600560008573ffffffffffffffffffffffffffffffffffffffff1673ffffffffffffffffffffffffffffffffffffffff168152602001908152602001600020819055506002808381548110612bb357fe5b9060005260206000209060040201600301819055506009600083815260200190815260200160002060006101000a81549073ffffffffffffffffffffffffffffffffffffffff0219169055818373ffffffffffffffffffffffffffffffffffffffff163373ffffffffffffffffffffffffffffffffffffffff167fddf252ad1be2c89b69c2b068fc378daa952ba7f163c4a11628f55a4df523b3ef60405160405180910390a4505050565b600060028281548110612c6d57fe5b9060005260206000209060040201600201549050919050565b60001515600060149054906101000a900460ff16151514612d0f576040517f08c379a00000000000000000000000000000000000000000000000000000000081526004018080602001828103825260188152602001807f436f6e747261637420616c7265616479207061757365642e000000000000000081525060200191505060405180910390fd5b6000809054906101000a900473ffffffffffffffffffffffffffffffffffffffff1673ffffffffffffffffffffffffffffffffffffffff163373ffffffffffffffffffffffffffffffffffffffff161415612dd2576040517f08c379a000000000000000000000000000000000000000000000000000000000815260040180806020018281038252601e8152602001807f596f75206172652074686520636f6e7472616374206465706c6f7965722e000081525060200191505060405180910390fd5b6000809054906101000a900473ffffffffffffffffffffffffffffffffffffffff1673ffffffffffffffffffffffffffffffffffffffff166108fc670de0b6b3a764000060028481548110612e2357fe5b906000526020600020906004020160020154029081150290604051600060405180830381858888f19350505050158015612e61573d6000803e3d6000fd5b5050565b600080828401905083811015612e7757fe5b8091505092915050565b600082821115612e8d57fe5b818303905092915050565b828054600181600116156101000203166002900490600052602060002090601f016020900481019282601f10612ed957805160ff1916838001178555612f07565b82800160010185558215612f07579182015b82811115612f06578251825591602001919060010190612eeb565b5b509050612f149190612f18565b5090565b612f3a91905b80821115612f36576000816000905550600101612f1e565b5090565b9056fe596f7520617265206e6f742074686520636f6e7472616374206465706c6f7965722ea165627a7a7230582031226bf3f27931ae55550175714031a39dcf4887286323136fe912f71a70771d0029",
  "source": "pragma solidity >=0.4.21 <0.6.0;\n\nimport \"./TicketCreation.sol\";\n\n/// @title TicketTransfer contract\n/// @notice this contract mainly deals with ticket transfers as well as fund transfers in the primary and secondary markets\ncontract TicketTransfer is TicketCreation {\n\n    /// @notice defines the state of each ticket in the secondary market, follows the logical flow that the purchase must be approved by a buyer\n    /// before the ticket can be sold (i.e. ownership transfer) by the seller to the buyer in the secondary market\n    enum SecondaryMarketStatus {\n    PendingApproval,\n    ApprovedByBuyer,\n    OwnershipTransferred,\n    DoneDeal\n    }\n\n    uint64 commissionFactor;\n\n    /// @notice defines the amount of commission the contract deployer will take from ticket sales in the secondary market (e.g. 30 means 1/30 ~ 3.3%)\n    constructor() public {\n        commissionFactor = 30;\n    }\n\n    /// @notice creates (1) an event whenever a transfer of ticket ownership occurs; and (2) an event whenever a buyer approves him/herself as the buyer of a ticket in the secondary market\n    event Transfer(address indexed _from, address indexed _to, uint256 indexed _ticketId);\n    event Approval(address indexed _owner, address indexed _approved, uint256 indexed _ticketId);\n\n    /// @notice maps ticket ID to funds to be sent to the seller in the secondary market\n    mapping (uint256 => uint256) ticketIdToPending;\n    /// @notice maps ticket ID to the previous owner (i.e. seller) of the ticket (used below to direct fund flows to the seller after ticket ownership has been transferred to the new buyer)\n    mapping (uint256 => address) ticketIdToOldOwner;\n    /// @notice maps ticket ID to the address of the approved buyer\n    mapping (uint256 => address) public approvedBuyers;\n\n    /// @notice modifier disallows the seller making the function call (e.g. a seller should not be able to force a user to approve him/herself as buyer of the ticket)\n    modifier notSeller(uint256 _ticketId){\n        require(msg.sender != ticketsToOwner[_ticketId], \"You are not the buyer.\");\n        _;\n    }\n\n    /// @notice modifier disallows the contract deployer making the function call (e.g. contract deployer cannot force-sell its tickets to any users)\n    modifier notContractDeployer(){\n        require(msg.sender != contractDeployer, \"You are the contract deployer.\");\n        _;\n    }\n\n    /// @notice modifier requires the function to be called by the ticket owner\n    modifier ownsTicket(uint256 _ticketId){\n        require(ticketsToOwner[_ticketId] == msg.sender, \"You don't own the ticket.\");\n        _;\n    }\n\n    /// @notice below functions are simple getter functions for various variables and mappings\n    function getContractDeployer() public view returns (address) {\n        return contractDeployer;\n    }\n\n    function getTicketCount() public view returns (uint256) {\n        return tickets.length;\n    }\n\n    function balanceOf(address _owner) external view returns (uint256){\n        return ownerToQuantity[_owner];\n    }\n\n    function ownerOf(uint256 _ticketId) external view returns (address){\n        return ticketsToOwner[_ticketId];\n    }\n\n    function getPrice(uint256 _ticketId) public view returns (uint256) {\n        return tickets[_ticketId].price;\n    }\n\n    function getStatus(uint256 _ticketId) public view returns (uint256) {\n        return tickets[_ticketId].marketStatus;\n    }\n\n    /// @notice when buyer clicks on 'Purchase', this function is called to handle the transfer of ticket ownership from contract deployer to buyer\n    /// @notice function requires the buyer to have an account and have sufficient funds to pay for the ticket\n    /// @notice relevant mappings are updated as a result of the ticket ownership transfer and a transfer event is emitted\n    /// @param _from takes in the seller (i.e. contract deployer) address\n    /// @param _to takes in the buyer address\n    /// @param _ticketId takes in the ticket ID of the ticket\n    function transferFrom(address _from, address _to, uint256 _ticketId) external payable checkIfPaused() notContractDeployer() {\n        require(adToUserId[_to] > 0, \"Please create an account first.\"); /* Requires user to have an account */\n        require(msg.value == (tickets[_ticketId].price)*1 ether, \"Not enough money.\"); /* Requires buyer to pay the price of ticket */\n        ticketsToOwner[_ticketId] = _to;\n        ownerToQuantity[_from] = ownerToQuantity[_from].sub(1);\n        ownerToQuantity[_to] = ownerToQuantity[_to].add(1);\n        emit Transfer(_from, _to, _ticketId);\n    }\n\n    /// @notice function is called automatically after the above 'transferFrom' goes through, funds are transferred to contract deployer from the contract\n    /// @param _ticketId takes in the ticket ID of the ticket\n    function transferEthToCD(uint256 _ticketId) external payable checkIfPaused() notContractDeployer() {\n        contractDeployer.transfer((tickets[_ticketId].price) * 1 ether);\n    }\n\n    /// @notice function allows the ticket owner only to change the price of the ticket\n    /// @param _ticketId takes in the ticket ID of the ticket\n    /// @param _newPrice takes in the new price of the ticket\n    /// @return returns the new price of the ticket\n    function priceRevise(uint256 _ticketId, uint256 _newPrice) external checkIfPaused() ownsTicket(_ticketId) returns(uint256) {\n        tickets[_ticketId].price = _newPrice;\n    }\n\n    /// @notice when user clicks on 'Approve', this function approves the user as a buyer of the ticket in the secondary market\n    /// @notice function requires the buyer to have an account and have sufficient funds to pay for the ticket\n    /// @notice the funds paid by the buyer gets stored in a mapping which maps the ticket ID to the amount paid, this amount is later released to the seller\n    /// @notice the ticket's secondary market status becomes 1 i.e. approvedByBuyer after approval takes place\n    /// @param _approved takes in the approved buyer's address\n    /// @param _ticketId takes in the ticket ID of the ticket\n    function approve(address _approved, uint256 _ticketId) external payable checkIfPaused() notSeller(_ticketId) {\n        require(adToUserId[msg.sender] > 0, \"Please create an account first.\");\n        require(msg.value == (tickets[_ticketId].price) * 1 ether, \"Not enough money.\"); /* Requires buyer to pay the price of ticket */\n        approvedBuyers[_ticketId] = _approved; /* Buyer approves him/herself for the ticket, goes into the approved buyer mapping */\n        ticketIdToPending[_ticketId] = msg.value; /* Buyer's money gets stored in the contract, so we store it in a temp mapping */\n        tickets[_ticketId].marketStatus = 1;\n        emit Approval(ticketsToOwner[_ticketId], _approved, _ticketId);\n    }\n\n    /// @notice simple getter function\n    function getApprovedBuyer(uint256 _ticketId) public view returns(address){\n        return approvedBuyers[_ticketId];\n    }\n\n    /// @notice when seller clicks on 'Sell', this function handles the transfer of ticket ownership from the seller to the approved buyer in the secondary market\n    /// @notice the functionalities are similar to the 'transferFrom' function, only main difference is that this deals with transfers in the secondary market\n    /// @notice the ticket's secondary market status becomes 2 i.e. ownershipTransferred after transfer takes place\n    /// @notice after transfer, the approvedBuyer mapping for the ticket gets deleted as it is no longer needed in storage (can save gas)\n    /// @param _to takes in the buyer's address\n    /// @param _ticketId takes in the ticket ID of the ticket\n    function transferFromSecond(address _to, uint256 _ticketId) external checkIfPaused() ownsTicket(_ticketId) {\n        require(adToUserId[msg.sender] > 0, \"Please create an account first.\");\n        require(tickets[_ticketId].marketStatus == 1, \"Not yet approved by any buyer.\");\n        require(approvedBuyers[_ticketId] == _to, \"This is not an approved buyer.\");\n        ticketsToOwner[_ticketId] = _to;\n        ticketIdToOldOwner[_ticketId] = msg.sender;\n        ownerToQuantity[msg.sender] = ownerToQuantity[msg.sender].sub(1);\n        ownerToQuantity[_to] = ownerToQuantity[_to].add(1);\n        tickets[_ticketId].marketStatus = 2;\n        delete(approvedBuyers[_ticketId]); /* Can be deleted to refund gas */\n        emit Transfer(msg.sender, _to, _ticketId);\n        }\n\n    /// @notice similar to the 'transferEthToCD' function, this function is called automatically after 'transferFromSecond' goes through\n    /// @notice function requires the msg.sender to be the seller of the ticket (i.e. the 'previous' owner, retrieved from the 'ticketIdToOldOwner' mapping)\n    /// @notice funds are released to seller and the contract deployer (commission) using the 'ticketIdToPending' mapping which keeps track of the amount paid by buyer\n    /// @notice two mappings can be deleted after transfer is done as they are no longer needed in storage (can save gas)\n    /// @notice the ticket's secondary market status becomes 3 i.e. DoneDeal\n    /// @param _ticketId takes in the ticket ID of the ticket\n    function transferEthSecond(uint256 _ticketId) external payable checkIfPaused() {\n        require(tickets[_ticketId].marketStatus == 2, \"Ticket not yet transferred.\");\n        require(ticketIdToOldOwner[_ticketId] == msg.sender, \"You cannot run this operation.\");\n        tickets[_ticketId].marketStatus = 3;\n        address payable receiver = msg.sender;\n        uint256 commissionAmount = ticketIdToPending[_ticketId]/commissionFactor;\n        uint256 sellerAmount = ticketIdToPending[_ticketId] - commissionAmount;\n        contractDeployer.transfer(commissionAmount);\n        receiver.transfer(sellerAmount);\n        delete(ticketIdToPending[_ticketId]);\n        delete(ticketIdToOldOwner[_ticketId]);\n    }\n\n\n    /// @notice as this is a test Dapp, this function allows the contract deployer to remove the contract after testing\n    function kill() external onlyContractDeployer() {\n        selfdestruct(contractDeployer);\n    }\n}",
  "sourcePath": "/Users/AaronKo/Desktop/Solidity/ConsensysProjectLocalServer/contracts/TicketTransfer.sol",
  "compiler": {
    "name": "solc",
    "version": "0.5.8+commit.23d335f2.Emscripten.clang"
  },
  "schemaVersion": "3.0.11",
  "updatedAt": "2019-08-18T04:29:32.451Z",
  "devdoc": {
    "methods": {
      "approve(address,uint256)": {
        "params": {
          "_approved": "takes in the approved buyer's address",
          "_ticketId": "takes in the ticket ID of the ticket"
        }
      },
      "circuitBreaker()": {
        "return": "returns contractPaused as true or false depending on whether the circuit breaker is on or off"
      },
      "createAccount(string,string)": {
        "params": {
          "_firstName": "takes user first name",
          "_lastName": "takes user last name"
        },
        "return": "returns the user ID"
      },
      "createTicket(string,string,uint256)": {
        "params": {
          "_description": "takes ticket description",
          "_eventName": "takes event name",
          "_price": "takes ticket price"
        }
      },
      "priceRevise(uint256,uint256)": {
        "params": {
          "_newPrice": "takes in the new price of the ticket",
          "_ticketId": "takes in the ticket ID of the ticket"
        },
        "return": "returns the new price of the ticket"
      },
      "transferEthSecond(uint256)": {
        "params": {
          "_ticketId": "takes in the ticket ID of the ticket"
        }
      },
      "transferEthToCD(uint256)": {
        "params": {
          "_ticketId": "takes in the ticket ID of the ticket"
        }
      },
      "transferFrom(address,address,uint256)": {
        "params": {
          "_from": "takes in the seller (i.e. contract deployer) address",
          "_ticketId": "takes in the ticket ID of the ticket",
          "_to": "takes in the buyer address"
        }
      },
      "transferFromSecond(address,uint256)": {
        "params": {
          "_ticketId": "takes in the ticket ID of the ticket",
          "_to": "takes in the buyer's address"
        }
      }
    },
    "title": "TicketTransfer contract"
  },
  "userdoc": {
    "methods": {
      "approve(address,uint256)": {
        "notice": "when user clicks on 'Approve', this function approves the user as a buyer of the ticket in the secondary marketfunction requires the buyer to have an account and have sufficient funds to pay for the ticketthe funds paid by the buyer gets stored in a mapping which maps the ticket ID to the amount paid, this amount is later released to the sellerthe ticket's secondary market status becomes 1 i.e. approvedByBuyer after approval takes place"
      },
      "circuitBreaker()": {
        "notice": "circuit breaker function can only be called by contract deployer, when circuit breaker is on, any functions with this modifier will not go throughpurpose of circuit breaker is to put a pause on smart contracts in case of an attack by a malicious party"
      },
      "constructor": "defines the amount of commission the contract deployer will take from ticket sales in the secondary market (e.g. 30 means 1/30 ~ 3.3%)",
      "createAccount(string,string)": {
        "notice": "function handles account creation by users who want to use the Dapp to purchase/resell tickets, user info is appended into the users array"
      },
      "createTicket(string,string,uint256)": {
        "notice": "function can only be called by contract deployer, handles ticket creationnew tickets are appended to the tickets array, and two relevant mappings are also updatedfunction emits an event whenever a new ticket is created"
      },
      "getApprovedBuyer(uint256)": {
        "notice": "simple getter function"
      },
      "getContractDeployer()": {
        "notice": "below functions are simple getter functions for various variables and mappings"
      },
      "kill()": {
        "notice": "as this is a test Dapp, this function allows the contract deployer to remove the contract after testing"
      },
      "priceRevise(uint256,uint256)": {
        "notice": "function allows the ticket owner only to change the price of the ticket"
      },
      "transferEthSecond(uint256)": {
        "notice": "similar to the 'transferEthToCD' function, this function is called automatically after 'transferFromSecond' goes throughfunction requires the msg.sender to be the seller of the ticket (i.e. the 'previous' owner, retrieved from the 'ticketIdToOldOwner' mapping)funds are released to seller and the contract deployer (commission) using the 'ticketIdToPending' mapping which keeps track of the amount paid by buyertwo mappings can be deleted after transfer is done as they are no longer needed in storage (can save gas)the ticket's secondary market status becomes 3 i.e. DoneDeal"
      },
      "transferEthToCD(uint256)": {
        "notice": "function is called automatically after the above 'transferFrom' goes through, funds are transferred to contract deployer from the contract"
      },
      "transferFrom(address,address,uint256)": {
        "notice": "when buyer clicks on 'Purchase', this function is called to handle the transfer of ticket ownership from contract deployer to buyerfunction requires the buyer to have an account and have sufficient funds to pay for the ticketrelevant mappings are updated as a result of the ticket ownership transfer and a transfer event is emitted"
      },
      "transferFromSecond(address,uint256)": {
        "notice": "when seller clicks on 'Sell', this function handles the transfer of ticket ownership from the seller to the approved buyer in the secondary marketthe functionalities are similar to the 'transferFrom' function, only main difference is that this deals with transfers in the secondary marketthe ticket's secondary market status becomes 2 i.e. ownershipTransferred after transfer takes placeafter transfer, the approvedBuyer mapping for the ticket gets deleted as it is no longer needed in storage (can save gas)"
      }
    },
    "notice": "this contract mainly deals with ticket transfers as well as fund transfers in the primary and secondary markets"
  }
}